:020000040800F2
:1000000000A000202D470008F5450008F74500082E
:10001000F9450008FB450008FD4500080000000008
:10002000000000000000000000000000313A00085D
:10003000FF45000800000000D13A00080146000812
:100040007D4700087D4700087D4700087D47000880
:100050007D4700087D4700087D4700087D47000870
:100060007D4700087D4700087D4700087D47000860
:100070007D4700087D4700087D4700087D47000850
:100080007D4700087D4700087D4700087D47000840
:100090007D4700087D4700087D4700087D47000830
:1000A0007D4700087D4700087D4700087D47000820
:1000B000094600087D4700087D4700087D47000885
:1000C0007D4700087D4700087D4700087D47000800
:1000D0007D470008194600087D4700087D47000855
:1000E0007D4700087D4700087D4700087D470008E0
:1000F0007D4700087D4700087D4700087D470008D0
:100100000000000000000000000000007D47000823
:100110007D4700087D4700087D4700087D470008AF
:100120007D4700087D4700087D4700087D4700089F
:100130007D4700087D470008000000000000000027
:100140007D4700087D4700087D470008000000004B
:10015000000000000000000000000000000000009F
:1001600000000000000000007D4700087D470008F7
:100170007D470008000000000000000000000000B3
:08018000000000007D470008AB
:1001900010B5054C237833B9044B13B10448AFF3C1
:1001A00000800123237010BD10000020000000001B
:1001B000E047000808B5034B1BB103490348AFF300
:1001C000008008BD0000000014000020E047000887
:1001D00008B5074A136843F010031360032000F0CA
:1001E00023FC002004F0CAF904F080F9002008BDC7
:1001F00000200240034A1168034B1B780B44136034
:10020000704700BFB411002000000020014B1868A7
:10021000704700BFB411002038B50268936803F03E
:100220000303012B01D0002038BD136813F0010F28
:100230002FD0936803F00D03012B09D0436C43F0DA
:1002400010034364836C43F0010383640120EBE7F4
:100250000446936843F002039360036803221A6024
:10026000FFF7D4FF054623689B6813F0010F0ED0FB
:10027000FFF7CCFF401B0228F5D9636C43F0100355
:100280006364A36C43F00103A3640120CCE7002066
:10029000CAE70020C8E7000030B597B000230093FC
:1002A000002800F02E810446436C13F0100F52D149
:1002B000436CABB1002023689A6812F0805F03D0D2
:1002C0009B6813F0005F47D0636C23F0120343F088
:1002D00010036364A36C43F00103A36401203BE0BB
:1002E00083640365C36480F8403003F035FE2368FF
:1002F0009B6813F0805F01D00020DCE72046FFF709
:100300008BFF636C13F0100FD5D10028D3D1636C31
:1003100023F4885323F0020343F00203636422684A
:10032000936823F0405393602268936843F08053AE
:100330009360754B1B68754AA2FB03239B0C03EB70
:1003400083035A00009202E0009B013B0093009B54
:10035000002BF9D1AFE70020636C13F0100F40F0D1
:10036000C780002840F0C48023689A6812F0040215
:1003700040F0BE80616C21F4817141F00201616442
:10038000B3F1A04F15D062498B420FD06149B3F150
:10039000A04F10D05E4DAB4268D05F4DAB4269D0EC
:1003A0005E4DAB4269D00023019307E001F5007177
:1003B000EDE75B49EBE703F5807301932568AB68D4
:1003C00003F00303012B5BD0019B23B19D6805F073
:1003D0000305012D59D08B6823F4403365682B4306
:1003E0008B60E1694B03A56B012D01D04FF4805266
:1003F0001343E2681343A2681343626A012A49D097
:10040000E26A012A0AD02168434DA94255D005F578
:100410008075A94251D0216B0A4313432268916829
:1004200011F00C0F0BD1D16821F4804121F00201B1
:10043000D160A169626B520042EA813213432168A4
:10044000CD68384A2A401343CB602369012B46D03C
:100450002268136B23F00F0313630023A364636C00
:1004600023F0030343F00103636448E04FF0A0432B
:100470000193A3E7294B0193A0E7274B01939DE745
:100480002B6813F0010FACD19EE71B6813F0010F2E
:10049000A7D1A0E731B9A26A013A43EA424343F443
:1004A0008033ADE7626C22F0220242F020026264E7
:1004B000A26C42F00102A264A2E7B2F5307F08D03C
:1004C000B2F5807F08D0B2F5E07FA4D14FF48072FE
:1004D000A1E74FF4E0729EE74FF430729BE721688A
:1004E0000B6B23F00F03226A013A13430B63B4E74B
:1004F000636C23F0120343F010036364012017B010
:1005000030BD0120FBE700BF0C00002083DE1B4351
:10051000000100500007005000040050000500508A
:100520000003005007C0F0FF30B496B000220092E4
:1005300090F84020012A00F0BB810346012280F898
:1005400040200068826812F0040F40F0A6814A68DB
:10055000042A31D8046B02EB420255001F22AA4044
:1005600024EA02020C68AC402243026318688268E5
:1005700012F00C0F68D10A68092A4ED9846902EB7F
:1005800042021E3A0725954024EA05048D6805FAC3
:1005900002F22243826148691C68E268C2F3C10228
:1005A000520000FA02F208690138032800F295802F
:1005B000DFE800F040727D88092A0ED8446B02EB18
:1005C000420255001E3D1F22AA4024EA02020C6886
:1005D00004FA05F52A434263C8E70E2A0ED8846B55
:1005E00002EB420255003C3D1F22AA4024EA0202CF
:1005F0000C6804FA05F52A438263B7E7C46B02EB83
:10060000420255005A3D1F22AA4024EA02020C6809
:1006100004FA05F52A43C263A8E7446902EB4202E3
:100620000725954024EA05048D6805FA02F2224365
:100630004261B0E7206E9F4D0540086842EA806243
:10064000154345F0004525661868826802F00302EC
:10065000012A75D0CA68012A78D0D0F8B0200D6878
:100660000124AC4022EA0402C0F8B0201A68B2F1BA
:10067000A04F00F096809048824200F090808F4C0E
:100680000868102800F08F80112800F0A080122840
:1006900000F0A280002005E1606E864D05400868EC
:1006A00042EA8062154345F000456566CCE7A06EDE
:1006B000804D0540086842EA8062154345F00045D8
:1006C000A566C1E7E56E7B4828400D6842EA856271
:1006D000024342F00042E266B6E7226E02F0F842C0
:1006E0000868B2EB806F1CD01868426E02F0F842C6
:1006F0000C68B2EB846F19D01868826E02F0F84271
:100700000C68B2EB846F16D01868C26E02F0F84223
:100710000C68B2EB846F97D1C26E22F00042C266C1
:1007200092E7226E22F000422266DDE7426E22F05E
:1007300000424266E0E7826E22F000428266E3E712
:10074000026812F0010F85D00020ABE0D0F8B02095
:100750000D680124AC402243C0F8B0200A68092A81
:100760000ED91D68A86902EB42021B3A0724944087
:1007700020EA04008C6804FA02F20243AA6175E7D9
:100780001D686869013202EB42020724944020EAA6
:1007900004008C6804FA02F202436A6166E7484C7E
:1007A0006EE7474C6CE7A56815F4000F7FF46CAF5B
:1007B000B2F1A04F16D0404882422CD0414882422C
:1007C0002DD0414882422DD0002201920DE0A56833
:1007D00015F0807FECD05AE7A06810F4800FE7D0C6
:1007E00000205FE002F5807201921868826802F0D2
:1007F0000302012A19D0019A22B1956805F0030578
:10080000012D1CD00A68102A1ED0112A36D0122AB7
:100810003DD0002046E04FF0A0420192E5E72A4A91
:100820000192E2E7274A0192DFE7026812F0010F26
:10083000E1D05A6C42F020025A64012032E0126882
:1008400012F0010FF5D1DDE7B0F1A04FDDD1A268C4
:1008500042F40002A2601D4A12681D49A1FB021267
:10086000920C02EB82025100009102E0009A013AE0
:100870000092009A002AF9D1002013E0B0F1A04FB5
:10088000C5D1A26842F08072A26000200AE0A2688E
:1008900042F48002A260002004E05A6C42F0200280
:1008A0005A640120002283F8402016B030BC704703
:1008B0000220FAE700F0FF8300010050000700501B
:1008C0000003005000040050000500500C00002000
:1008D00083DE1B4370B497B003460268B2F1A04FA9
:1008E0000BD04C48824249D04B4882424AD04B48B8
:1008F00082424AD00022019202E002F58072019207
:10090000019A002A00F0828093F8400001287FD0ED
:10091000012083F840001868846814F0040F6AD13D
:10092000946814F0040F66D1B0F1A04F32D0394C66
:10093000A0422DD03A480C68002C39D0846824F4A9
:1009400060444D685E6B45EA46352C4384601D6803
:10095000AC6804F00304012C1ED0946804F0030476
:10096000012C1FD0826822F4716222F00F020C6801
:10097000896821430A438260002041E04FF0A04291
:100980000192BDE7254A0192BAE7234A0192B7E7EF
:100990002448D0E72348CEE72C6814F0010FDCD0C0
:1009A00000202DE0126812F0010FDBD0002027E0BC
:1009B000816821F4604181601C68A16801F0030135
:1009C00001290CD0916801F0030101290DD0826842
:1009D00022F4716222F00F028260002010E0216890
:1009E00011F0010FEED000200AE0126812F0010FA2
:1009F000EDD0002004E05A6C42F020025A6401203D
:100A0000002283F8402017B070BC70470120FAE73D
:100A10000220F8E7000100500004005000050050DB
:100A20000007005000030050074AD36823F4E06336
:100A30001B041B0C000200F4E060184340F0BF6090
:100A400040F40030D060704700ED00E030B4174B48
:100A5000DB68C3F30223C3F10704042C28BF04247A
:100A60001D1D062D18D9033B4FF0FF3505FA04F480
:100A700021EA0401994005FA03F322EA030319432A
:100A800000280BDB0901C9B200F1604000F56140AC
:100A900080F8001330BC70470023E5E700F00F003A
:100AA0000901C9B2024B1954F4E700BF00ED00E0A0
:100AB00014ED00E000F01F02400901239340024AB8
:100AC00042F82030704700BF00E100E00138B0F18B
:100AD000807F0AD2064B5860064AF02182F8231024
:100AE0000020986007221A6070470120704700BFFD
:100AF00010E000E000ED00E0042805D0054A13688E
:100B000023F0040313607047024A136843F00403A0
:100B10001360704710E000E008B590F82130022B18
:100B200003D004238363012008BD0268136823F007
:100B30000E0313600268136823F001031360036C53
:100B4000C16B012202FA03F34B6080F821200023DD
:100B500080F82030436B13B198470020E4E7002071
:100B6000E2E70000F0B482B0002336E0042400E0A5
:100B70000024B4403C4302355B4E46F825405B4CB4
:100B80002568D44304EA05064F6817F4803F01D076
:100B900042EA0506554D2E606D6804EA05064F6869
:100BA00017F4003F01D042EA0506504D6E60AD6873
:100BB00004EA05064F6817F4801F01D042EA0506D3
:100BC0004A4DAE60ED682C404E6816F4001F01D00F
:100BD00042EA0504454AD46001330A6832FA03F454
:100BE0007ED001249C402240F6D04D68022D01D0D9
:100BF000122D10D1DE08083650F826C003F0070584
:100C0000AF000F25BD402CEA050C0D69BD4045EA3B
:100C10000C0540F8265006685F000325BD40ED43F3
:100C200005EA060C4E6806F00306BE4046EA0C06CE
:100C300006604E6806F1FF3CBCF1010F03D9112E8E
:100C400001D0122E10D1866805EA060CCE68BE408F
:100C500046EA0C068660466826EA04044E68C6F337
:100C600000169E4026434660C46825408C68BC4000
:100C70002C43C4604C6814F0805FADD01C4CA56957
:100C800045F00105A561A46904F001040194019CEB
:100C90009D08AE1C144C54F8267003F00304A60003
:100CA0000F24B44027EA0407B0F1904F3FF460AF3F
:100CB000104CA0420ED004F58064A0420CD004F584
:100CC0008064A0420AD004F58064A0423FF44EAF95
:100CD00005244EE701244CE702244AE7032448E7B1
:100CE00002B0F0BC704700BF0000014000040140AA
:100CF00000100240000400480AB981627047816117
:100D0000704743695940416170470000002800F076
:100D1000F58270B582B00446036813F0010F3BD032
:100D2000B54B5B6803F00C03042B1ED0B24B5B6821
:100D300003F00C03082B13D06368B3F5803F68D031
:100D4000002B40F0928003F1804303F504331A68CE
:100D500022F480321A601A6822F480221A605DE060
:100D6000A54B5B6813F4803FE6D04FF4003393FA51
:100D7000A3F3A14B19684FF4003393FAA3F3B3FA2A
:100D800083F303F01F03012202FA03F30B4203D0A3
:100D90006368002B00F0B482236813F0020F00F0A8
:100DA000C680954B5B6813F00C0F00F09C80924B53
:100DB0005B6803F00C03082B00F08F802369002B85
:100DC00000F0F380012292FAA2F3B3FA83F303F165
:100DD000845303F584139B001A60FFF717FA054646
:100DE000022393FAA3F3844B1968022393FAA3F323
:100DF000B3FA83F303F01F03012202FA03F30B4259
:100E000040F0C480FFF702FA401B0228E8D9032013
:100E100083E2794A136843F480331360764AD36AD5
:100E200023F00F03A1680B43D3626368002B36D015
:100E3000FFF7ECF905464FF4003393FAA3F36E4B3A
:100E400019684FF4003393FAA3F3B3FA83F303F072
:100E50001F03012202FA03F30B429DD1FFF7D6F9DB
:100E6000401B6428E7D9032057E2B3F5A02F09D02F
:100E7000614B1A6822F480321A601A6822F48022C8
:100E80001A60CBE703F18043A3F53C331A6842F4C0
:100E900080221A601A6842F480321A60BEE7FFF7B7
:100EA000B5F905464FF4003393FAA3F3524B196892
:100EB0004FF4003393FAA3F3B3FA83F303F01F0361
:100EC000012202FA03F30B423FF466AFFFF79EF9EB
:100ED000401B6428E6D903201FE2474B5B6813F4EC
:100EE000803F7FF46BAF022393FAA3F3424B196860
:100EF000022393FAA3F3B3FA83F303F01F0301224F
:100F000002FA03F30B4204D02369934201D001207B
:100F100003E23948036823F0F8036169F82292FA82
:100F2000A2F2B2FA82F201FA02F2134303602368DA
:100F300013F0080F00F08C80A369002B60D0012112
:100F400091FAA1F2B2FA82F22C4B13449B00196081
:100F5000FFF75CF90546022393FAA3F293FAA3F292
:100F600093FAA3F2244A516A93FAA3F3B3FA83F3F0
:100F700003F01F03012202FA03F30B4268D1FFF7CB
:100F800045F9401B0228E6D90320C6E11A48036848
:100F900023F0F8036169F82292FAA2F2B2FA82F21F
:100FA00001FA02F213430360C1E7012393FAA3F3AA
:100FB000B3FA83F303F1845303F584139B000022F7
:100FC0001A60FFF723F90546022393FAA3F30A4BAD
:100FD0001968022393FAA3F3B3FA83F303F01F0310
:100FE000012202FA03F30B42A1D0FFF70FF9401BD5
:100FF0000228E9D9032090E10010024020819010DE
:10100000012292FAA2F2B2FA82F2C04B13449B0080
:1010100000221A60FFF7FAF80546022393FAA3F2BA
:1010200093FAA3F293FAA3F2B94A516A93FAA3F39B
:10103000B3FA83F303F01F03012202FA03F30B4216
:1010400006D0FFF7E3F8401B0228E6D9032064E14D
:10105000236813F0040F00F0B380AD4BDB6913F08D
:10106000805F20D1AA4BDA6942F08052DA61DB69F5
:1010700003F080530193019B0125A64B1B6813F4D9
:10108000807F12D0E368012B23D073BB03F1804330
:1010900003F504331A6A22F001021A621A6A22F076
:1010A00004021A621AE00025E7E79A4A136843F43B
:1010B00080731360FFF7AAF80646964B1B6813F47B
:1010C000807FDFD1FFF7A2F8801B6428F5D90320C9
:1010D00023E18F4A136A43F001031362E368002B94
:1010E00041D0FFF793F806462BE0052B09D0884B3B
:1010F0001A6A22F001021A621A6A22F004021A62C3
:10110000ECE7834B1A6A42F004021A621A6A42F050
:1011100001021A62E2E77E4B196A022393FAA3F3F3
:10112000B3FA83F303F01F03012202FA03F3194217
:1011300045D1FFF76BF8801B41F28833984200F2EB
:10114000E180022393FAA3F293FAA3F3B3FA83F3B1
:101150005B0943F00203022BDDD0022393FAA3F3D1
:101160006B4B596AD9E7FFF751F8064615E0684B13
:10117000196A022393FAA3F3B3FA83F303F01F036C
:10118000012202FA03F3194219D0FFF73FF8801B3E
:1011900041F28833984200F2B780022393FAA3F217
:1011A00093FAA3F3B3FA83F35B0943F00203022B30
:1011B000DDD0022393FAA3F3554B596AD9E7B5BBA7
:1011C000E369002B00F0A880514A526802F00C023B
:1011D000082A00F0A480022B2FD04FF0807393FADE
:1011E000A3F3B3FA83F303F1845303F584139B0051
:1011F00000221A60FFF70AF804464FF0007393FAD2
:10120000A3F3434B19684FF0007393FAA3F3B3FAB7
:1012100083F303F01F03012202FA03F319426BD098
:10122000FEF7F4FF001B0228E7D9032075E0384AD7
:10123000D36923F08053D361C2E74FF0807393FAF0
:10124000A3F3B3FA83F303F1845303F584139B00F0
:1012500000221A60FEF7DAFF05464FF0007393FA9A
:10126000A3F32B4B19684FF0007393FAA3F3B3FA6F
:1012700083F303F01F03012202FA03F3194206D09D
:10128000FEF7C4FF401B0228E7D9032045E02049B0
:101290004B6823F47413626A206A024313434B6061
:1012A0004FF0807393FAA3F3B3FA83F303F18453FB
:1012B00003F584139B0001221A60FEF7A7FF044682
:1012C0004FF0007393FAA3F3114B19684FF00073BA
:1012D00093FAA3F3B3FA83F303F01F03012202FA94
:1012E00003F3194206D1FEF791FF001B0228E7D94C
:1012F000032012E0002010E000200EE001207047E3
:1013000001200AE0032008E0032006E0208190107D
:101310000010024000700040002002B070BD0120AB
:10132000FBE700BF10B4174B5C6804F00C03082BFC
:1013300026D104F470124FF4701393FAA3F3B3FAA6
:1013400083F322FA03F31049C85C0E4BDB6A03F007
:101350000F030F2292FAA2F2B2FA82F2D3400B44A8
:101360001A7C14F4803F05D1084B03FB00F05DF8B4
:10137000044B7047064BB3FBF2F300FB03F0F6E7B8
:101380000348F4E700100240F847000800093D0058
:1013900000127A00002800F0C08070B50446614B4E
:1013A0001B6803F007038B420CD25E4A136823F0DC
:1013B00007030B431360136803F007038B4201D04C
:1013C000012070BD236813F0020F06D0564A5368FF
:1013D00023F0F003A068034353600D46236813F025
:1013E000010F5AD06368012B2DD0022B40D002226E
:1013F00092FAA2F24C4A1068022292FAA2F2B2FACF
:1014000082F202F01F02012101FA02F2104200F002
:10141000868045494A6822F0030213434B60FEF779
:10142000F5FE0646404B5B6803F00C036268B3EBC5
:10143000820F32D0FEF7EAFE801B41F288339842D9
:10144000F0D90320BDE74FF4003292FAA2F2364AF7
:1014500010684FF4003292FAA2F2B2FA82F202F06D
:101460001F02012101FA02F20242D2D10120A8E7B3
:101470004FF0007292FAA2F22B4A10684FF00072FD
:1014800092FAA2F2B2FA82F202F01F02012101FAEC
:1014900002F21042BDD1012093E7224B1B6803F0FA
:1014A0000703AB420CD91F4A136823F007032B43F1
:1014B0001360136803F00703AB4201D0012080E7FB
:1014C000236813F0040F06D0174A536823F4E0632F
:1014D000E1680B435360236813F0080F07D0124AEA
:1014E000536823F46053216943EAC1035360FFF753
:1014F00019FF0D4B5B6803F0F003F02292FAA2F2A1
:10150000B2FA82F2D340094AD35CD840084B186043
:10151000002003F033F8002053E70120704701203A
:101520004FE700BF00200240001002404048000882
:101530000C000020014B1868704700BF0C00002011
:1015400008B5FFF7F7FF074B5B6803F4E0634FF460
:10155000E06292FAA2F2B2FA82F2D340024AD35C7B
:10156000D84008BD001002405048000808B5FFF7F9
:10157000E1FF074B5B6803F460534FF4605292FA4B
:10158000A2F2B2FA82F2D340024AD35CD84008BD3C
:1015900000100240504800080F2303600B4B5A68AC
:1015A00002F0030242605A6802F0F00282605A6858
:1015B00002F4E062C2605B68DB0803F4E06303618D
:1015C000034B1B6803F007030B60704700100240D9
:1015D00000200240F0B583B00446036813F4803F56
:1015E00048D0934BDB6913F0805F40F0D580904B7F
:1015F000DA6942F08052DA61DB6903F080530193CB
:10160000019B01258B4B1B6813F4807F00F0C68083
:10161000874B1B6A13F4407322D0626802F4407255
:101620009A421DD08248016A21F440764FF48033FB
:1016300093FAA3F2B2FA82F27F4F3A4492004FF04B
:10164000010CC2F800C093FAA3F3B3FA83F33B444E
:101650009B0000221A60066211F0010F40F0B38077
:10166000734A136A23F4407361680B431362002DBD
:1016700040F0D580236813F0010F06D06C4A136B3D
:1016800023F00303A1680B431363236813F0020FD5
:1016900006D0674A136B23F44033E1680B431363AE
:1016A000236813F0040F06D0614A136B23F4402320
:1016B00021690B431363236813F0200F06D05C4AA3
:1016C000136B23F01003E1690B431363236813F4D6
:1016D000003F06D0564A536823F48003A16B0B43A6
:1016E0005360236813F0400F06D0514A136B23F068
:1016F0002003216A0B431363236813F0080F06D0FD
:101700004B4A136B23F4401361690B431363236843
:1017100013F0100F06D0464A136B23F44003A1695F
:101720000B431363236813F4007F06D0404A5368C9
:1017300023F40003E16A0B435360236813F0800F26
:1017400006D03B4AD36A23F4F873616A0B43D36231
:10175000236813F4807F06D0354AD36A23F4785384
:10176000A16A0B43D362236813F4805F06D0304A2A
:10177000136B23F48073216B0B431363236813F4FF
:10178000005F53D02A4A136B23F40073616B0B4341
:101790001363002003B0F0BD002533E7254A13682A
:1017A00043F480731360FEF731FD0646214B1B683E
:1017B00013F4807F7FF42CAFFEF728FD801B642894
:1017C000F4D90320E6E7FEF721FD064615E0184BA5
:1017D000196A022393FAA3F3B3FA83F303F01F0306
:1017E000012202FA03F30B427FF43AAFFEF70EFD3B
:1017F000801B41F28833984216D8022393FAA3F251
:1018000093FAA3F3B3FA83F35B0943F00203022BC9
:10181000DDD0022393FAA3F3054B596AD9E7D369C4
:1018200023F08053D36125E70320B3E70020B1E71D
:10183000001002400070004000819010002858D035
:1018400010B504460023836290F85D30002B45D02C
:10185000022384F85D302268136823F0400313608C
:10186000E368B3F5E06F3ED90022B3F5706F04D0A2
:10187000B3F5E06F01D00021A162216B21B9B3F56E
:10188000E06F33D9022323636368A1680B432169A6
:101890000B4361690B43A16901F400710B43E169DA
:1018A0000B43216A0B43A06A216803430B60638BDF
:1018B00003F00403616A0B43616B0B43E1680B4364
:1018C000216813434B602268D36923F40063D3611A
:1018D00000202066012384F85D3010BD80F85C3064
:1018E00002F0B0FDB4E74FF48052BEE7012323635A
:1018F000CAE70120704770470268D36843F00103CC
:10190000D3600268136843F001031360002070473E
:10191000704770477047704710B5044603681A69EE
:1019200012F0020F11D0DA6812F0020F0DD06FF032
:1019300002021A610123037703689B6913F0030F06
:1019400079D0FFF7E6FF0023237723681A6912F0A6
:10195000040F12D0DA6812F0040F0ED06FF00402F8
:101960001A610223237723689B6913F4407F68D0B0
:101970002046FFF7CEFF0023237723681A6912F071
:10198000080F12D0DA6812F0080F0ED06FF00802BC
:101990001A61042323772368DB6913F0030F57D000
:1019A0002046FFF7B6FF0023237723681A6912F059
:1019B000100F12D0DA6812F0100F0ED06FF0100274
:1019C0001A61082323772368DB6913F4407F46D02C
:1019D0002046FFF79EFF0023237723681A6912F041
:1019E000010F03D0DA6812F0010F3FD123681A69A2
:1019F00012F0800F03D0DA6812F0800F3DD1236817
:101A00001A6912F4807F03D0DA6812F0800F3BD19C
:101A100023681A6912F0400F03D0DA6812F0400F01
:101A200039D123681A6912F0200F03D0DA6812F056
:101A3000200F37D110BDFFF76BFF2046FFF76AFF7D
:101A400081E72046FFF764FF2046FFF763FF92E738
:101A50002046FFF75DFF2046FFF75CFFA3E7204627
:101A6000FFF756FF2046FFF755FFB4E76FF001027E
:101A70001A61204602F0B4FBB8E76FF080021A61E9
:101A8000204600F08DF8BAE76FF480721A612046A4
:101A900000F087F8BCE76FF040021A612046FFF7BC
:101AA0003AFFBEE76FF020021A61204600F077F897
:101AB000C0E7000003682C4A90420ED0B0F1804F7E
:101AC0000BD0A2F59432904207D002F5806290428A
:101AD00003D002F59632904203D123F070034A6896
:101AE0001343214A90421AD0B0F1804F17D0A2F58B
:101AF0009432904213D002F5806290420FD002F5EA
:101B0000963290420BD002F54062904207D002F527
:101B10008062904203D002F58062904203D123F4A8
:101B20004073CA68134323F080034A691343036078
:101B30008B68C3620B6883620B4B98420FD003F52E
:101B4000006398420BD003F54063984207D003F539
:101B50008063984203D003F58063984201D10B69FA
:101B60000363012343617047002C0140A8B110B505
:101B7000044690F83D305BB1022384F83D30211DCE
:101B80002068FFF797FF012384F83D30002010BD47
:101B900080F83C30FFF7AFFEEEE70120704770475A
:101BA000704770470268136823F4907313600268EB
:101BB000936823F001039360202380F86A30704714
:101BC00090F86A30DBB2202B3BD100293BD0002AB1
:101BD0003BD090F86830012B39D0012380F8683071
:101BE0004165A0F85820A0F85A208368B3F5805FBB
:101BF00006D05BB9036903BBFF23A0F85C3005E0A6
:101C00000369B3B940F2FF13A0F85C300023C36648
:101C1000222280F86A2080F8683001688A6842F0E1
:101C200001028A6001680A6842F490720A601846EC
:101C30007047FF23A0F85C30E8E77F23A0F85C3012
:101C4000E4E702207047012070470120704702201E
:101C500070477047704708B5406A0023A0F85A30B3
:101C6000A0F85230FFF7F6FF08BD000010B504469B
:101C700083680269134342691343C2691A430168C6
:101C80000B6823F4164323F00C0313430B60026824
:101C9000536823F44053C1680B4353608369026A5D
:101CA0001A4301688B6823F4306313438B60036825
:101CB000914A93421FD0914A93422FD0904A934227
:101CC00046D0904A93425DD08F4A934274D01022FE
:101CD000E169B1F5004F00F08B80082A00F20A811B
:101CE000DFE812F0CE00DA00E6000801F200080199
:101CF00008010801FE0002F55842126B02F00302CF
:101D0000032A09D8DFE802F0020406720122DFE7A5
:101D10000422DDE70822DBE71022D9E702F5E632EC
:101D2000126B02F44032B2F5803F0BD007D9B2F506
:101D3000003F09D0B2F5403F08D10222C8E72AB9D6
:101D40000022C5E70422C3E70822C1E71022BFE74B
:101D500002F5E432126B02F44022B2F5802F0BD070
:101D600007D9B2F5002F09D0B2F5402F08D10222D1
:101D7000AEE72AB90022ABE70422A9E70822A7E7C9
:101D80001022A5E702F5E232126B02F44012B2F51E
:101D9000801F0BD007D9B2F5001F09D0B2F5401F44
:101DA00008D1022294E72AB9002291E704228FE7A2
:101DB00008228DE710228BE702F5E032126B02F465
:101DC0004002B2F5800F0BD007D9B2F5000F09D051
:101DD000B2F5400F08D102227AE72AB9002277E74C
:101DE000042275E7082273E7102271E702226FE7E9
:101DF000082A42D8DFE802F0051722412D4141416F
:101E00003800FFF79DFB6268530803EB4003B3FB08
:101E1000F2F39BB2002023F00F02C3F342031343FB
:101E20002268D36010BDFFF7A1FB6268530803EB83
:101E30004003B3FBF2F39BB20020ECE76268530867
:101E400003F5740303F51053B3FBF2F39BB20020C8
:101E5000E1E7FFF767FA6268530803EB4003B3FB5F
:101E6000F2F39BB20020D6E76268530803F5803393
:101E7000B3FBF2F39BB20020CDE701200023CAE7B9
:101E8000FFF75EFB636800EB5300B0FBF3F02368E1
:101E900080B2D8600020C5E7FFF768FB636800EBFD
:101EA0005300B0FBF3F0236880B2D8600020B9E79C
:101EB00061684A0802F5F40202F59052B2FBF1F2B1
:101EC00092B2DA600020ADE7FFF72CFA636800EB0E
:101ED0005300B0FBF3F0236880B2D8600020A1E784
:101EE00061684A0802F50042B2FBF1F292B2DA6090
:101EF000002097E7012095E70038014000440040AA
:101F000000480040004C004000500040436A13F07D
:101F1000010F06D00268536823F40033816A0B4333
:101F20005360436A13F0020F06D00268536823F42B
:101F30008033C16A0B435360436A13F0040F06D029
:101F40000268536823F48023016B0B435360436A98
:101F500013F0080F06D00268536823F40043416B66
:101F60000B435360436A13F0100F06D00268936866
:101F700023F48053816B0B439360436A13F0200F6B
:101F800006D00268936823F40053C16B0B4393603F
:101F9000436A13F0400F0AD00268536823F4801399
:101FA000016C0B435360036CB3F5801F0BD0436A85
:101FB00013F0800F06D00268536823F40023816C6D
:101FC0000B43536070470268536823F4C003416CAD
:101FD0000B435360EBE72DE9F04105460F461646EB
:101FE0009846069C2B68DB6937EA03030CBF012384
:101FF0000023B3421DD1B4F1FF3FF3D02CB1FEF763
:1020000005F9A0EB0800A042ECD92A68136823F474
:10201000D07313602A68936823F001039360202330
:1020200085F8693085F86A30002385F86830032028
:1020300000E00020BDE8F0812DE9F04182B01E46AD
:1020400090F86930DBB2202B4ED104460D46904605
:1020500000294ED0002A4ED090F86830012B4CD089
:10206000012380F868300023C366212380F869309B
:10207000FEF7CCF80746A4F85080A4F8528003E09D
:1020800023682A781A850135B4F852309BB2DBB147
:10209000B4F85230013B9BB2A4F8523000963B4654
:1020A000002280212046FFF796FF40BBA368B3F5CE
:1020B000805FE5D12369002BE2D1226835F8023B2D
:1020C000C3F308031385DFE700963B460022402157
:1020D0002046FFF780FF034698B9202284F8692044
:1020E000002284F8682000E00223184602B0BDE810
:1020F000F0810123F9E70123F7E70223F5E7032342
:10210000F3E70323F1E730B583B004460023C36649
:10211000FEF77CF8054623681B6813F0080F0ED104
:1021200023681B6813F0040F17D1202384F869304B
:1021300084F86A30002084F8680003B030BD6FF086
:102140007E430093034600224FF400112046FFF720
:1021500042FF0028E4D00320EFE76FF07E430093B6
:102160002B4600224FF480012046FFF734FF002861
:10217000DBD00320E1E778B310B5044690F869306E
:102180000BB3242384F869302268136823F0010319
:1021900013602046FFF76AFD012813D0636ABBB9BC
:1021A0002268536823F4904353602268936823F0B5
:1021B0002A0393602268136843F0010313602046EA
:1021C000FFF7A1FF10BD80F8683002F081FAD8E770
:1021D0002046FFF79BFEE3E70120704790F8693047
:1021E000DBB2212B2ED1B0F852309BB28BB1836879
:1021F000B3F5805F19D0C36C5A1CC26402681B78A7
:102200001385B0F85230013B9BB2A0F85230002049
:1022100070470268136823F0800313600268136834
:1022200043F040031360002070470369002BE2D1A4
:10223000C36C02681B88C3F308031385C36C0233A5
:10224000C364DEE70220704708B501680B6823F01D
:1022500040030B60202380F86930FFF7FAFC002070
:1022600008BDB0F85C2090F86A30DBB2222B31D187
:1022700010B503689B8C9BB28168B1F5805F0ED06E
:10228000D2B2416D4C1C44651A400A70B0F85A3005
:10229000013B9BB2A0F85A305BB1002010BD016930
:1022A0000029EDD1416D1A400A80436D0233436528
:1022B000ECE70268136823F4907313600268936874
:1022C00023F001039360202380F86A3002F00AF8BB
:1022D0000020E3E70268936943F00803936102205A
:1022E0007047000038B504460268D369116813F0DE
:1022F0000F0505D113F0200F02D011F0200F60D18F
:102300009068002D72D010F0010502D111F4907F79
:102310006CD013F0010F07D011F4807F04D001209E
:102320001062E26E0243E26613F0020F07D035B18D
:10233000226802201062E26E42F00402E26613F0AC
:10234000040F07D035B1226804201062E26E42F01B
:102350000202E26613F0080F09D011F0200F00D13D
:102360002DB1226808201062E26E0243E266E26E3E
:10237000002A4DD013F0200F02D011F0200F23D1EE
:10238000E36E13F0080F04D123689B6813F0400F2D
:1023900026D02046FFF706FC23689A6812F0400F0B
:1023A0001AD09A6822F040029A60636E83B1234A81
:1023B0005A63606EFEF7B0FB50B3606E436B984794
:1023C00026E0FFF74EFF23E02046FFF74AFFD7E75E
:1023D0002046FFF73FFC1BE02046FFF73BFC17E0E1
:1023E0002046FFF737FC0023E36611E013F4801F5B
:1023F00002D010F4800F0CD113F0800F02D011F036
:10240000800F12D113F0400F02D011F0400F10D105
:1024100038BD4FF480131362202384F8693084F8A8
:102420006A30204600F00CF8F2E72046FFF7D6FEAF
:10243000EEE72046FFF708FFEAE700BF571C000859
:102440007047842801D0033070470020704708B5DA
:1024500000F010FD002008BDF0B585B00F464468BF
:1024600005680669B0F90800FFF7EBFF03AB0193BD
:1024700000903B46B2B22946204600F0C9FC012834
:1024800002D1039805B0F0BD0020FBE708B5034674
:1024900000B90123184600F039FE002008BD08B538
:1024A00000F0B6FF012801D001F044FB08BD00F1A7
:1024B000080343604FF0FF328260C3600361002372
:1024C0000360704700230361704743684B609A685C
:1024D0008A609A68516099600861036801330360FB
:1024E000704730B40D68B5F1FF3F02D000F108022B
:1024F00002E0026904E01A4653681C68AC42FAD94B
:1025000053684B6099608A605160086103680133C9
:10251000036030BC704703694268816891608268DB
:10252000416851605A68824205D0002202611868F1
:1025300001381860704782685A60F6E710B50446A3
:1025400001F088FAA26BE36B9A4204D0002401F0F8
:10255000A3FA204610BD0124F9E710B5044601F0A6
:1025600079FAA36B23B1002401F096FA204610BD3E
:102570000124F9E770B504461646856B026C5AB91A
:1025800003681BB100200135A56370BD406800F0F1
:10259000A5FF00236360F6E76EB9806802F014F9C6
:1025A000226CA3681344A3606268934219D3236822
:1025B000A3600020E7E7C06802F006F9226C5242EF
:1025C000E3681344E36021688B4202D263681A44D3
:1025D000E260022E01D00020D5E725B1013D0020A8
:1025E000D1E70020CFE70020CDE7026C72B110B533
:1025F000C3681344C3604468A34201D30368C36043
:102600000C46C168204602F0DFF810BD704738B5AF
:10261000054601F01FFA95F8454064B203E000F06A
:10262000EFFE013C64B2002C08DD6B6A33B105F1AA
:10263000240000F04FFE0028F3D0F0E7FF2385F8D8
:10264000453001F029FA01F005FA95F8444064B2EA
:1026500003E000F0D5FE013C64B2002C08DD2B69DC
:1026600033B105F1100000F035FE0028F3D0F0E79B
:10267000FF2385F8443001F00FFA38BD38B540B972
:102680004FF0500383F31188BFF36F8FBFF34F8F69
:10269000FEE704460D4601F0DDF92168E26B236C8C
:1026A00003FB021060600020A063A160013A02FBFE
:1026B0000313E360FF2384F8443084F84530A5B960
:1026C00023691BB901F0E8F9012038BD04F11000BD
:1026D00000F000FE0028F5D0084B4FF080521A6041
:1026E000BFF34F8FBFF36F8FECE704F11000FFF7DC
:1026F000DEFE04F12400FFF7DAFEE3E704ED00E07C
:1027000010B5029B0C4639B11A60D8631C640121D4
:102710001846FFF7B3FF10BD1B60F6E740B94FF056
:10272000500383F31188BFF36F8FBFF34F8FFEE722
:10273000F0B583B0054611B101FB00F000E00020C8
:1027400017460C46483001F011FB064638B10090A0
:102750003B4600F1480221462846FFF7D1FF3046AC
:1027600003B0F0BDF0B585B0019260B1044699B9EF
:10277000026C8AB14FF0500383F31188BFF36F8F5F
:10278000BFF34F8FFEE74FF0500383F31188BFF381
:102790006F8FBFF34F8FFEE7022B0BD1E26B012A45
:1027A00008D04FF0500383F31188BFF36F8FBFF34E
:1027B0004F8FFEE71E460F4600F02AFE50B9019BE0
:1027C00053B14FF0500383F31188BFF36F8FBFF302
:1027D0004F8FFEE700253AE0002538E032463946C3
:1027E0002046FFF7C7FE636A4BB9A8B13B4B4FF0D9
:1027F00080521A60BFF34F8FBFF36F8F0CE004F16C
:10280000240000F067FD38B1344B4FF080521A605D
:10281000BFF34F8FBFF36F8F01F03EF9012005B07A
:10282000F0BD01F039F90020F9E702A800F094FDAD
:10283000012519E0002384F8443021E0002384F8C6
:10284000453023E02046FFF7E2FE00F0E7FB01F011
:1028500001F9A26BE36B9A42C0D3022EBED0019B5A
:10286000002BDED0002DE0D001F016F900F040FB87
:1028700001F0F0F894F844305BB2B3F1FF3FD9D0E7
:1028800094F845305BB2B3F1FF3FD7D001F004F9C3
:1028900001A902A800F074FDC8B92046FFF74EFE5A
:1028A0000028CFD0019904F1100000F0DBFC204695
:1028B000FFF7ADFE00F0B2FB0028C8D1074B4FF088
:1028C00080521A60BFF34F8FBFF36F8FBFE7204670
:1028D000FFF79DFE00F0A2FB0020A0E704ED00E062
:1028E0002DE9F84360B1044699B9006C88B14FF006
:1028F000500383F31188BFF36F8FBFF34F8FFEE751
:102900004FF0500383F31188BFF36F8FBFF34F8FE6
:10291000FEE7022B0BD1E06B012808D04FF05003EB
:1029200083F31188BFF36F8FBFF34F8FFEE71F460E
:102930009046894601F09EF9EFF311864FF050035F
:1029400083F31188BFF36F8FBFF34F8FA26BE36BDD
:102950009A4203D3022F01D000200FE094F8455093
:102960006DB23A4649462046FFF704FEB5F1FF3FF7
:1029700008D06B1C5BB284F84530012086F31188C7
:10298000BDE8F883636A5BB104F1240000F0A2FCA7
:1029900040B1B8F1000F07D00120C8F80000EDE702
:1029A0000120EBE70120E9E70120E7E72DE9F0410D
:1029B00084B0019260B1044699B9026C8AB14FF0BB
:1029C000500383F31188BFF36F8FBFF34F8FFEE780
:1029D0004FF0500383F31188BFF36F8FBFF34F8F16
:1029E000FEE71F46884600F013FD50B9019B53B126
:1029F0004FF0500383F31188BFF36F8FBFF34F8FF6
:102A0000FEE700265FE000265DE0E66841462046DE
:102A1000FFF7EBFDDFB9013DA563236813B900F0B3
:102A2000B5FD6060236963B104F1100000F052FC51
:102A300038B1464B4FF080521A60BFF34F8FBFF34F
:102A40006F8F01F029F8012004B0BDE8F081E66045
:102A5000636A002BF5D004F1240000F03BFC002851
:102A6000EFD03A4B4FF080521A60BFF34F8FBFF355
:102A70006F8FE6E701F010F80020E5E702A800F00C
:102A80006BFC012629E0002384F8443031E0002368
:102A900084F8453033E000F0DDFF606800F0C8FCEA
:102AA00000F0FAFF3BE02046FFF7B1FD00F0B6FA78
:102AB00009E02046FFF7ABFD00F0B0FA2046FFF733
:102AC0004CFD002840D100F0C5FFA56B002D9CD126
:102AD000019B002BCED0002ED0D000F0DDFF00F007
:102AE00007FA00F0B7FF94F844305BB2B3F1FF3F50
:102AF000C9D094F845305BB2B3F1FF3FC7D000F0C6
:102B0000CBFF01A902A800F03BFC0028D1D1204650
:102B1000FFF723FD0028C6D02368002BBBD0019906
:102B200004F1240000F09EFB2046FFF770FD00F04A
:102B300075FA0028C7D1054B4FF080521A60BFF3D9
:102B40004F8FBFF36F8FBEE700207DE704ED00E0FD
:102B50000023072B0CD8074A52F833200AB101335F
:102B6000F7E7044A42F8331002EBC303586070479A
:102B7000704700BFB811002070B504460D461646D8
:102B800000F068FF94F844305BB2B3F1FF3F0DD022
:102B900094F845305BB2B3F1FF3F0BD000F07CFFFF
:102BA000A36B5BB12046FFF732FD70BD002384F8B4
:102BB0004430EDE7002384F84530EFE732462946FC
:102BC00004F1240000F068FBECE70000074B9B6A6F
:102BD0001B6833B1054B9A6AD268D2685268DA62D0
:102BE0007047024B4FF0FF32DA6270472C00002032
:102BF00010B50446006B01F033F9204601F030F9BE
:102C000010BD2DE9F04780469946089D099F0A9C12
:102C1000266B02F18042013A06EB820626F0070697
:102C200000230F2B07D8C85CE21882F83400CA5C76
:102C30000AB10133F5E7002384F84330062D00D9AB
:102C40000625E56265644FF0000AC4F848A0201D1F
:102C5000FFF738FC04F11800FFF734FC2461C5F1DC
:102C60000705A5616462C4F84CA084F850A04A46E8
:102C70004146304600F0C4FE206007B13C60BDE82C
:102C8000F087000070B5002407E004EB8402930095
:102C900010481844FFF70BFC0134062CF5D90E4CF4
:102CA00004F1BC063046FFF702FC04F1D0052846CB
:102CB000FFF7FDFB04F11400FFF7F9FB04F1E4005A
:102CC000FFF7F5FB2046FFF7F2FBA662C4F8F850C9
:102CD00070BD00BF5C0000202C00002038B5054608
:102CE00000F0B8FE264BD3F8FC200132C3F8FC20DC
:102CF000D3F8003173B1224BD3F804318BB9204B98
:102D0000D3F80031DA6AEB6A9A420AD81C4BC3F84E
:102D1000005106E01A4BC3F80051D3F8FC30012BE8
:102D20002AD0174CD4F808310133C4F80831EB6AC3
:102D300001229A40D4F80C110A43C4F80C2104F182
:102D4000300003EB83039A00291D1044FFF7BDFBFD
:102D500000F0A2FED4F804316BB1D4F80031DA6A85
:102D6000EB6A9A4207D2074B4FF080521A60BFF3CA
:102D70004F8FBFF36F8F38BDFFF784FFD1E700BFE0
:102D80002C00002004ED00E070B504460E461F4BF9
:102D9000D3F81051D3F800010430FFF7BCFB60B941
:102DA0001A4BD3F80021D16A012202FA01F1D3F8BB
:102DB0000C2122EA0102C3F80C21B4F1FF3F12D02A
:102DC0002C44124BD3F800315C60A54214D80F4D4F
:102DD000A86AD5F800110431FFF783FBEB6AA34220
:102DE00012D9EC6210E0002EEAD00848D0F80011A9
:102DF0000431FFF76AFB07E0044BD3F8F800D3F87F
:102E000000110431FFF76DFB70BD00BF2C000020E6
:102E10002DE9F04385B0074688461546994690004F
:102E200000F0A4FFF8B10646542000F09FFF0446CE
:102E3000A8B10663D4B10023039302940D9B0193C0
:102E40000C9B00934B462A4641463846FFF7D9FE75
:102E50002046FFF743FF012005B0BDE8F083304670
:102E600000F0FEFFE6E74FF0FF30F5E74FF0FF30F0
:102E7000F2E7000000B583B0194B019300230093E3
:102E8000802218491848FFF7C3FF012807D00128FE
:102E900008D0B0F1FF3F1AD003B05DF804FB00F09A
:102EA000DDFBF4E74FF0500383F31188BFF36F8F1E
:102EB000BFF34F8F0D4B4FF0FF32DA620122C3F8A0
:102EC00004210022C3F8102100F060FEE4E74FF077
:102ED000500383F31188BFF36F8FBFF34F8FFEE76B
:102EE0004801002058480008AD3100082C0000209F
:102EF000034AD2F818310133C2F81831704700BFC5
:102F00002C000020014BD3F8100170472C0000204A
:102F10002DE9F041404BD3F81831002B6CD13E4BDA
:102F2000D3F810510135C3F81051CDB99B6A1B6815
:102F300043B14FF0500383F31188BFF36F8FBFF39A
:102F40004F8FFEE7344B9A6AD3F8F8109962C3F8B2
:102F5000F820D3F820210132C3F82021FFF736FEF4
:102F60002D4BDB6AAB423DD900242B4AD2F800310D
:102F7000DB6A03EB830399000A44136B012B42D9EC
:102F8000012440E00124244B9B6A1B6863B3224B5D
:102F90009B6ADB68DE6873689D422AD306F10408E9
:102FA0004046FFF7B8FAB36A1BB106F11800FFF705
:102FB000B2FAF36A01229A40174FD7F80C110A436C
:102FC000C7F80C2107F1300003EB83039A00414658
:102FD0001044FFF77AFAF26AD7F80031DB6A9A42B6
:102FE000D0D2D0E70024CEE70B4B4FF0FF32DA62AD
:102FF000BBE7094AD362B8E7074AD2F82431013364
:10300000C2F824310024044BD3F8283103B1012441
:103010002046BDE8F08100BF2C000020394BD3F8DA
:10302000183143B94FF0500383F31188BFF36F8F0A
:10303000BFF34F8FFEE770B500F00CFD314BD3F8B6
:103040001821013AC3F81821D3F81831002B54D1B4
:103050002C4BD3F8FC3023B9002400F01DFD204692
:1030600070BD0024274B5B692BB3264D2B6ADC68AF
:1030700004F11800FFF74FFA261D3046FFF74BFA10
:10308000E36A01229A40D5F80C110A43C5F80C21D5
:1030900005F1300003EB83039A0031461044FFF73B
:1030A00014FAE26AD5F80031DB6A9A42DAD30122D7
:1030B000C5F82821D6E70CB1FFF788FD114BD3F8EE
:1030C000244164B1FFF724FF18B10E4B0122C3F86D
:1030D0002821013CF6D10B4B0022C3F82421094BD7
:1030E000D3F828315BB1084B4FF080521A60BFF320
:1030F0004F8FBFF36F8F0124AFE70024ADE70024AB
:10310000ABE700BF2C00002004ED00E010B5B0B12B
:1031100004460F4BD3F8183143B14FF0500383F3FB
:103120001188BFF36F8FBFF34F8FFEE7FFF7E0FE0D
:1031300000212046FFF728FEFFF770FF38B9054B46
:103140004FF080521A60BFF34F8FBFF36F8F10BDE7
:103150002C00002004ED00E038B5134BD3F81431F7
:103160000BB3FFF7C5FE104BD3F8E440FFF756FF53
:10317000002CF2D000F06EFC0B4CD4F8F030DD687F
:10318000281DFFF7C8F9D4F8FC30013BC4F8FC3027
:10319000D4F81431013BC4F8143100F07DFC28460A
:1031A000FFF726FDD9E738BD2C00002008B5FFF752
:1031B000D3FF064B1B6B012BF9D9054B4FF0805207
:1031C0001A60BFF34F8FBFF36F8FF0E72C00002022
:1031D00004ED00E0224BD3F8183123B1204B01223B
:1031E000C3F8282170471E4A0023C2F82831D2F8BC
:1031F0000C31B3FA83F3DBB2C3F11F0303EB83009B
:1032000081000A44126B42B94FF0500383F31188D6
:10321000BFF36F8FBFF34F8FFEE710B4104A9900D2
:10322000CC18A0001044446B6468446330321944E5
:1032300088000830024494420BD0094903EB830311
:103240009A000A44536BDB68C1F800315DF8044B07
:10325000704761680248142202FB03025163ECE7E5
:103260002C00002040B94FF0500383F31188BFF3C6
:103270006F8FBFF34F8FFEE710B50C46054BD3F8A9
:1032800000111831FFF72DF901212046FFF77CFDD1
:1032900010BD00BF2C00002038B540B94FF05003DE
:1032A00083F31188BFF36F8FBFF34F8FFEE70C4698
:1032B0001546074AD2F800111831FFF706F90DB18B
:1032C0004FF0FF3429462046FFF75EFD38BD00BFB2
:1032D0002C00002038B5C368DC6844B94FF05003B7
:1032E00083F31188BFF36F8FBFF34F8FFEE704F1B5
:1032F00018052846FFF70FF9154BD3F8183103BB13
:10330000251D2846FFF707F9E36A01219940104A75
:10331000D2F80C010143C2F80C11303203EB8303E5
:10332000980029461044FFF7D0F8E26A084BD3F81A
:103330000031DB6A9A4209D90120054BC3F8280104
:1033400038BD29460348FFF7C0F8EEE70020F7E74D
:103350002C0000204000002038B1084AD2F820118B
:103360000160D2F81021426070474FF0500383F3A0
:103370001188BFF36F8FBFF34F8FFEE72C00002043
:1033800038B550B1044689B94FF0500383F3118822
:10339000BFF36F8FBFF34F8FFEE74FF0500383F300
:1033A0001188BFF36F8FBFF34F8FFEE70D4600F01C
:1033B00051FB124BD3F810112B68B3F1FF3F19D01A
:1033C00020680E4AD2F82021904202D062688A42D8
:1033D00012D96268881A834204D8012400F05CFB89
:1033E000204638BD521A13442B602046FFF7B4FF25
:1033F0000024F3E70024F1E70124EFE72C0000208C
:10340000024B0122C3F82821704700BF2C00002086
:10341000064BD3F804313BB1044BD3F818310BB150
:103420000020704702207047012070472C000020C8
:1034300000284DD038B50546C26A2649D1F800119A
:10344000C96A8A4216D28169002906DB2149D1F86E
:103450000011C96AC1F107018161686902EB82024A
:1034600091001D4A0A44904205D01A4AD2F8002120
:10347000D26AEA6238BD2C1D2046FFF74CF8A0B195
:103480001448D0F80031DB6AEB6201229A40D0F890
:103490000C110A43C0F80C21303003EB83039A006F
:1034A00021461044FFF711F8E4E7EA6A02EB8203D1
:1034B0009900084B0B441B6B002BE1D10123934077
:1034C0000449D1F80C2122EA0302C1F80C21D7E704
:1034D000704700BF2C0000205C00002000284DD069
:1034E00038B50446284AD2F80021824208D04FF06D
:1034F000500383F31188BFF36F8FBFF34F8FFEE745
:10350000826C42B94FF0500383F31188BFF36F8F81
:10351000BFF34F8FFEE7013A8264C06A616C884254
:103520002ED07ABB251D2846FEF7F5FF78B9E26A52
:103530001549142303FB02131B6B43B9012303FA40
:1035400002F2D1F80C3123EA0203C1F80C31626CAB
:10355000E262C2F10703A361012404FA02F10A4BFB
:10356000D3F80C010143C3F80C1130332946142061
:1035700000FB0230FEF7A9FF204638BD002070474F
:103580000020FAE70020F8E72C000020064BD3F8D3
:1035900000312BB1044BD3F80021936C01339364B9
:1035A000014BD3F8000170472C000020064B1A682D
:1035B0001368B3FA83F35B09036013B9D36818681F
:1035C00070470020704700BF5801002008B54160D7
:1035D000006191420CD8D21A83699A4201D301202A
:1035E00010E0011D094B5868FEF77BFF002009E041
:1035F0009A4201D2994206D2011D044B1868FEF787
:1036000070FF002008BD0120FCE700BF580100202A
:1036100070B500F01FFA0F4B9B6813B100F03CFA35
:1036200070BD0C4C04F10C063046FEF740FF04F16F
:1036300020052846FEF73BFF2660656000220C212E
:103640000A20FFF76BF8A0600028E7D00249FFF7D7
:103650007FFAE3E7580100206048000800B583B016
:10366000FFF7D6FF0D4B9B685BB10D4B0193022317
:10367000009300234FF480720A490B48FFF7C8FB00
:1036800040B94FF0500383F31188BFF36F8FBFF33E
:103690004F8FFEE703B05DF804FB00BF5801002028
:1036A0008C0100206848000881390008C8B130B595
:1036B00085B015460446174A906840B31A460191F2
:1036C0000295039405291DDCFFF7A2FE022811D004
:1036D00000231A4601A90F488068FFF743F805B098
:1036E00030BD4FF0500383F31188BFF36F8FBFF3EA
:1036F0004F8FFEE70023089A01A906488068FFF76C
:1037000031F8ECE7002301A9FFF7EAF8E7E700202A
:10371000E5E700BF58010020204B1B681A68002A0B
:1037200037D070B582B0DB681E68DC68251D28467E
:10373000FEF7F1FE636A20469847E369012B0AD041
:10374000164B1B681A68002AEDD1144A51681160A3
:10375000536002B070BDA36933449E4207D26360D8
:10376000246129460D4B1868FEF7BBFEE8E70021EF
:1037700000910B4632462046FFF798FF0028DFD124
:103780004FF0500383F31188BFF36F8FBFF34F8F58
:10379000FEE7024A516811605360704758010020EB
:1037A00038B50546FFF7AEFB0446074B9B6B8342DB
:1037B00005D800232B60044B9C63204638BDFFF7DF
:1037C000ABFF01232B60F6E75801002070B582B0F3
:1037D00005460E46144B1B68DB68DC68201DFEF7AF
:1037E0009AFEE369012B04D0636A2046984702B031
:1037F00070BDA1692B46324629442046FFF7E6FEFC
:103800000028F1D0002100910B462A462046FFF700
:103810004DFF0028E8D14FF0500383F31188BFF328
:103820006F8FBFF34F8FFEE75801002070B582B055
:1038300006460C46FFF75CFB01A8FFF7B1FF019BB2
:103840001BBB05460CB9B04218D22CB1114B5B68BA
:103850001C68B4FA84F464092246711B0D4B986805
:10386000FFF78AF9FFF7DAFB88B90B4B4FF080526C
:103870001A60BFF34F8FBFF36F8F08E0FFF7CEFBE7
:1038800029463046FFF7A2FF01E0FFF7C7FB02B071
:1038900070BD00BF5801002004ED00E030B587B0D6
:1038A00000231A4603A935488068FFF77FF80028EF
:1038B00061D0039B002BF3DB059C636913B1201DD2
:1038C000FEF729FE02A8FFF76BFF039B092BE7D841
:1038D00001A252F823F000BF0139000801390008A5
:1038E00001390008A1380008493900086F3900087B
:1038F0000139000801390008A138000849390008D9
:103900000499A5690B46024629442046FFF75EFE4E
:103910000028C5D0636A20469847E369012BBFD1D0
:10392000A269002100910B46049802442046FFF74B
:10393000BDFE0028B4D14FF0500383F31188BFF3CC
:103940006F8FBFF34F8FFEE70499A16131B103463A
:10395000024601442046FFF739FEA1E74FF050032D
:1039600083F31188BFF36F8FBFF34F8FFEE72046BD
:1039700000F076FA94E707B030BD00BF5801002090
:1039800000B583B001A8FFF711FE0199FFF74EFFC4
:10399000FFF784FFF6E700000B4B1B68B3F1FF3F16
:1039A00008D04FF0500383F31188BFF36F8FBFF33C
:1039B0004F8FFEE74FF0500383F31188BFF36F8FF3
:1039C000BFF34F8FFEE700BF0800002006480068E5
:1039D000006880F3088862B661B6BFF34F8FBFF30B
:1039E0006F8F00DF00BF000008ED00E0DFF80C0083
:1039F000016841F4700101607047000088ED00E04B
:103A00004FF0807340F8043C21F0010140F8081C9D
:103A1000054B40F80C3C40F8202C6FF0020340F8B6
:103A2000243C4438704700BF99390008000000006A
:103A3000074B19680868B0E8F04F80F30988BFF3B6
:103A40006F8F4FF0000080F311887047AFF3008054
:103A50002C0100204FF0500383F31188BFF36F8FC8
:103A6000BFF34F8F0A4A136801331360012B00D054
:103A70007047084B1B6813F0FF0FF9D04FF050034D
:103A800083F31188BFF36F8FBFF34F8FFEE700BF43
:103A90000800002004ED00E0094B1B6843B94FF01B
:103AA000500383F31188BFF36F8FBFF34F8FFEE78F
:103AB000013B034A13600BB983F31188704700BFC1
:103AC00008000020000000000000000000000000CE
:103AD000EFF30980BFF36F8F154B1A681EF0100FBC
:103AE00008BF20ED108A20E9F04F10604DF8043D2A
:103AF0004FF0500080F31188BFF34F8FBFF36F8FEB
:103B0000FFF768FB4FF0000080F3118808BC1968CC
:103B10000868B0E8F04F1EF0100F08BFB0EC108A34
:103B200080F30988BFF36F8F704700BFAFF3008049
:103B30002C01002008B54FF0500383F31188BFF328
:103B40006F8FBFF34F8FFFF7E3F918B1034B4FF0BF
:103B500080521A60002383F3118808BD04ED00E051
:103B6000064B1B68064AA2FB03239B09013B054A3F
:103B70001360054B07221A60704700BF0C0000203D
:103B8000D34D621014E000E010E000E0314B1A6801
:103B9000314B9A420DD02F4B1A68304B9A4211D1BB
:103BA0004FF0500383F31188BFF36F8FBFF34F8F34
:103BB000FEE74FF0500383F31188BFF36F8FBFF31D
:103BC0004F8FFEE700B583B0254B1A78D2B2019231
:103BD000FF221A701B78DBB28DF803309DF803309A
:103BE00003F050031F4A1370072353609DF80330FE
:103BF00013F0800F0AD01B4A5368013B53609DF8B5
:103C000003305B00DBB28DF80330EFE7154A5368F1
:103C10001B0203F4E0635360019BDBB2104A137094
:103C2000114B1A6842F470021A601A6842F070422E
:103C30001A60FFF795FF0D4B00221A60FFF7D6FEC2
:103C40000B4A136843F040431360FFF7BFFEFFF7D2
:103C5000A3FE00BF00ED00E071C20F4170C20F4132
:103C600000E400E09401002020ED00E008000020C6
:103C700034EF00E0EFF305830F2B0FD9104A9B5C64
:103C8000DBB2104A12789A4208D94FF0500383F3FE
:103C90001188BFF36F8FBFF34F8FFEE70A4B1B688E
:103CA00003F4E063074A5268934208D94FF0500387
:103CB00083F31188BFF36F8FBFF34F8FFEE7704719
:103CC000F0E300E0940100200CED00E0104A12F057
:103CD000070F1AD0D11D21F00701C1F580531344FD
:103CE0000A460C490A60002048601344083B23F050
:103CF00007038B6058601860981A50601360C860A2
:103D000008614FF000434B6170474FF48053E8E780
:103D1000B40100209C01002010B4134B1A688242A9
:103D20001BD359685C18844203D140680144596030
:103D3000184641684418A24213D10B4CA468A24211
:103D40000DD05268114441601A68126802609842AE
:103D500000D018605DF8044B70471346DEE704603E
:103D6000F5E70260F3E700BF9C01002070B5044650
:103D7000FFF7BEF8394B9B68BBB1384B5B691C42FF
:103D800062D1ACB1083414F0070F11D024F007044D
:103D9000083404F007035BB14FF0500383F311883C
:103DA000BFF36F8FBFF34F8FFEE7FFF78FFFE4E79F
:103DB000002C4BD0294B1B69A34249D3274B1D68CC
:103DC00001E02B4615466A68A24202D22A68002A00
:103DD000F7D1224A9268AA423CD01E6808362A6867
:103DE0001A606B681B1B102B10D9281910F0070FD5
:103DF00008D04FF0500383F31188BFF36F8FBFF3E8
:103E00004F8FFEE743606C60FFF786FF6968134AD7
:103E100013695B1A1361D268934201D20F4AD360CF
:103E20000E4B5B690B436B6000232B60FFF7F6F8CA
:103E300016F0070F10D04FF0500383F31188BFF333
:103E40006F8FBFF34F8FFEE70026EFE70026EDE709
:103E50000026EBE70026E9E7304670BD9C01002014
:103E600080B338B50446A0F1080550F8042C164973
:103E700049690A4208D14FF0500383F31188BFF318
:103E80006F8FBFF34F8FFEE750F8080C40B14FF033
:103E9000500383F31188BFF36F8FBFF34F8FFEE79B
:103EA00022EA010244F8042CFFF722F854F8041C1B
:103EB000054A13690B4413612846FFF72DFFFFF7EE
:103EC000ADF838BD704700BF9C01002000B58BB035
:103ED0001F484FF0A04303604FF44033436000237A
:103EE00083600361C361436203630122C262C360F2
:103EF000026243630422426183618363FCF7CCF96D
:103F0000B8B90AA9002341F80C3D1148FCF7E2FCBE
:103F1000A0B9012301930293002304930393059313
:103F2000069301A90A48FCF7FFFA60B90BB05DF8E7
:103F300004FB5521074800F05CF9E2E75D210548E4
:103F400000F057F9E5E76A21024800F052F9EDE781
:103F5000F8110020704800080368B3F1A04F00D0AA
:103F6000704700B587B003F1704303F504335A6915
:103F700042F080525A615B6903F080530093009BCA
:103F800007230193032302930023039301A94FF016
:103F90009040FCF7E7FD07B05DF804FB08B54FF46F
:103FA0007A70FEF773FA4FF400510248FCF7A9FE4D
:103FB000F5E700BF0010004800B585B0114A01AB1D
:103FC00007CA03C323F8022B120C1A704FF47A733A
:103FD0000B2201A90C48FEF72FF80C4800F0AFF9AE
:103FE0000028FAD1094800F0B1F94FF47A730122A0
:103FF00001460548FEF720F84FF480510448FCF7CD
:1040000080FEEAE780480008EC13002058120020E8
:104010000010004870B58AB00D4C05AD26460FCE95
:104020000FC533682B60002105A8FEF715FA094B70
:1040300018606D4614340FCC0FC523682B60002127
:104040006846FEF709FA044B18600AB070BD00BF5D
:10405000184800084C120020501200202DE9F04FA3
:104060008DB05A4B5A6942F400125A615A6902F4EF
:1040700000120192019A5A6942F400225A615A6967
:1040800002F400220292029A5A6942F480025A61B2
:104090005A6902F480020392039A5A6942F4003288
:1040A0005A615A6902F400320492049A5A6942F43D
:1040B00080225A615A6902F480220592059A5A694F
:1040C00042F480125A615B6903F480130693069BE5
:1040D000DFF8049100224FF47F414846FCF70CFEC4
:1040E000DFF8F88000224FF440614046FCF704FE00
:1040F000374E00224FF470713046FCF7FDFD4FF053
:10410000FF0ACDF81CA0032508950024099407A9EF
:104110004846FCF727FD4EF20F03079308950994D4
:1041200007A93046FCF71EFD40F257630793089538
:10413000099407A92748FCF715FD41F60873079372
:104140000895099407A94FF09040FCF70BFD4FF23A
:10415000FF3307930895099407A94046FCF702FD31
:104160004FF47F4BCDF81CB00127089709940A94AF
:1041700007A94846FCF7F6FC4FF4406307930897FD
:1041800009940A9407A94046FCF7ECFCCDF81CB052
:104190000894099408F5006807A94046FCF7E2FC7A
:1041A0004FF470730793089709940A9407A930464F
:1041B000FCF7D8FCCDF81CA00895099407A9404647
:1041C000FCF7D0FC0DB0BDE8F08F00BF001002403E
:1041D000000800480014004800100048000400488F
:1041E00008B50368B3F1804F00D008BDFCF702F8B2
:1041F000FBE7FEE700B59FB002231493012218925B
:10420000102219921B9300231C934FF400231D933B
:1042100014A8FCF77BFD38BB0F230F9302231093E8
:1042200000211191129113910FA8FDF7B3F8F8B97D
:1042300001230093002302936846FDF7CBF9D8B918
:10424000FDF778F90E4BA3FB00308009FCF73EFC2C
:104250000420FCF751FC00220F214FF0FF30FCF747
:10426000F5FB1FB05DF804FBA8210648FFF7C1FF6E
:10427000B6210448FFF7BDFFBD210248FFF7B9FF93
:10428000D34D6210A448000808B5FBF7A1FFFFF763
:10429000B1FFFFF7E3FE00F0FBF900F07FF800F05C
:1042A000A7F8FFF713FE802209490A4800F034F806
:1042B000012209490948FDF783FCFFF7ABFEFEF731
:1042C000C6F84FF400610648FCF71BFDF9E700BF94
:1042D000641200205812002060120020EC1300200D
:1042E0000010004810B54FF480710748FCF709FD35
:1042F000064C2178064800F03DF801222146054889
:10430000FDF75EFC10BD00BF0010004860120020E9
:1043100058120020EC130020016002710023837109
:10432000437193420AD210B401680024CC54013383
:10433000DBB29342F8D35DF8044B70477047427983
:104340008079824214BF002001207047437981792F
:104350008B420DD010B40246006818440133147922
:1043600093FBF4F104FB113353715DF8044B704778
:104370000020704730B485796C1C027994FBF2F30D
:1043800002FB1343DBB242799A4205D002685155D1
:104390008371012030BC70470020FBE708B511484D
:1043A000114B03604FF482734360002383604FF42A
:1043B0007062C260036143614FF480228261C36115
:1043C0000362436283620722C2620363082343637A
:1043D000FDF734FA00B908BD52210448FFF709FF80
:1043E000F9E700BF4813002000300140B44800083E
:1043F00008B51148114B03604FF4827343600023EA
:1044000083604FF47062C260036143614FF48022A5
:104410008261C3610362436283620722C2620363F3
:1044200008234363FDF70AFA00B908BD6A2104486E
:10443000FFF7DFFEF9E700BFE4120020003C004078
:10444000B4480008F0B589B00368244A934204D008
:10445000234A93421CD009B0F0BD224B9A6942F422
:1044600080529A619B6903F480530193019B48F247
:10447000E00303930223049300230593032306938D
:104480000523079303A94FF09040FCF76BFBE2E78D
:10449000144BDA6942F40042DA61DB6903F4004349
:1044A0000293029B1023039302270497002605968C
:1044B000032506950624079403A94FF09040FCF7C6
:1044C00051FB4FF4E0530393049705960695079428
:1044D00003A90548FCF746FBBDE700BF00300140DB
:1044E000003C0040001002400008004800B583B0C6
:1044F000214B9A6942F001029A619A6902F0010225
:104500000092009ADA6942F08052DA61DB6903F0C6
:1045100080530193019B0320FCF786FA0022114689
:104520006FF00B00FCF792FA002211466FF00A00C0
:10453000FCF78CFA002211466FF00900FCF786FAAE
:10454000002211466FF00400FCF780FA00221146A9
:104550006FF00300FCF77AFA00220F216FF00100E0
:10456000FCF774FA00220F214FF0FF30FCF76EFACF
:1045700003B05DF804FB00BF0010024000B589B035
:10458000002201461C20FCF761FA1C20FCF792FA7D
:10459000154BDA6942F00102DA61DB6903F00103CD
:1045A0000193019B02A903A8FCF7F6FFFCF7C8FFE3
:1045B0000E4BA3FB00239B0C013B0D484FF08042A8
:1045C000026040F2E732C26043600023036183600F
:1045D000FDF7CCFA18B1012009B05DF804FB0448DE
:1045E000FDF78AF9F8E700BF0010024083DE1B43A5
:1045F000AC1300207047FEE7FEE7FEE7FEE77047DA
:1046000008B5FDF74CFF08BD08B50248FDF784F971
:1046100008BD00BFAC13002008B50248FDF762FEDC
:1046200008BD00BFEC1300201549D1F8883043F4D1
:104630007003C1F88830134B1A6842F001021A6007
:104640005868114A02405A601A6822F0847222F4B3
:1046500080321A601A6822F480221A605A6822F4A2
:10466000FE025A60DA6A22F00F02DA62186B074A19
:1046700002401A6300229A604FF000638B6070471B
:1046800000ED00E0001002400CC07FF8CCFC00FF01
:1046900008B50C480C4B03604FF4E1334360002332
:1046A0008360C36003610C2242618361C361036262
:1046B0004362FDF760FD00B908BD4E210348FFF7D6
:1046C00098FDF9E7EC13002000380140C4480008C9
:1046D0000268144B9A4200D0704710B586B003F5BB
:1046E00058439A6942F480429A619B6903F480437B
:1046F0000093009B30230193022302930024039430
:10470000032304930723059301A90748FCF72AFA1A
:10471000224605212520FCF799F92520FCF7CAF946
:1047200006B010BD0038014000080048DFF834D062
:10473000002103E00C4B5B58435004310B480C4BF9
:1047400042189A42F6D30B4A02E0002342F8043B97
:10475000094B9A42F9D3FFF767FF00F011F8FFF712
:1047600093FDFEE700A00020DC48000800000020C8
:1047700010000020100000205C140020FEE7000064
:1047800070B50D4E0D4CA41BA4100025A54209D1F7
:104790000B4E0C4C00F024F8A41BA4100025A542DD
:1047A00005D170BD56F8253098470135EEE756F82B
:1047B000253098470135F2E7D4480008D44800086E
:1047C000D4480008D848000810B5431E0A44914256
:1047D00000D110BD11F8014B03F8014FF7E70000BD
:1047E000F8B500BFF8BC08BC9E467047F8B500BFDE
:0847F000F8BC08BC9E467047AE
:1047F80002030405060708090A0B0C0D0E0F10101A
:104808000102030405060708090A0B0C0D0E0F1018
:10481800984800089D3F00080000000000000000C4
:10482800800000008C480008B93F00080000000024
:1048380000000000800000000000000000000000F0
:10484800010203040607080900000000010203042E
:1048580049444C4500000000546D725100000000AE
:10486800546D7220537663002E2E2F5372632F617E
:1048780064632E63000000005374617274696E678C
:104888000A0D0000436D6450726F6365736F7200A8
:1048980064656661756C745461736B002E2E2F53BA
:1048A80072632F6D61696E2E630000002E2E2F53E8
:1048B80072632F7370692E63000000002E2E2F5331
:0C48C80072632F75736172742E63000020
:0448D400B501000822
:0448D8009101000842
:1048DC000100000010000000AAAAAAAA00127A0087
:040000050800472D7B
:00000001FF
